{
  "contractName": "Condo",
  "abi": [
    {
      "inputs": [],
      "stateMutability": "nonpayable",
      "type": "constructor"
    },
    {
      "inputs": [
        {
          "internalType": "address",
          "name": "sender",
          "type": "address"
        },
        {
          "internalType": "uint256",
          "name": "tokenId",
          "type": "uint256"
        },
        {
          "internalType": "address",
          "name": "owner",
          "type": "address"
        }
      ],
      "name": "ERC721IncorrectOwner",
      "type": "error"
    },
    {
      "inputs": [
        {
          "internalType": "address",
          "name": "operator",
          "type": "address"
        },
        {
          "internalType": "uint256",
          "name": "tokenId",
          "type": "uint256"
        }
      ],
      "name": "ERC721InsufficientApproval",
      "type": "error"
    },
    {
      "inputs": [
        {
          "internalType": "address",
          "name": "approver",
          "type": "address"
        }
      ],
      "name": "ERC721InvalidApprover",
      "type": "error"
    },
    {
      "inputs": [
        {
          "internalType": "address",
          "name": "operator",
          "type": "address"
        }
      ],
      "name": "ERC721InvalidOperator",
      "type": "error"
    },
    {
      "inputs": [
        {
          "internalType": "address",
          "name": "owner",
          "type": "address"
        }
      ],
      "name": "ERC721InvalidOwner",
      "type": "error"
    },
    {
      "inputs": [
        {
          "internalType": "address",
          "name": "receiver",
          "type": "address"
        }
      ],
      "name": "ERC721InvalidReceiver",
      "type": "error"
    },
    {
      "inputs": [
        {
          "internalType": "address",
          "name": "sender",
          "type": "address"
        }
      ],
      "name": "ERC721InvalidSender",
      "type": "error"
    },
    {
      "inputs": [
        {
          "internalType": "uint256",
          "name": "tokenId",
          "type": "uint256"
        }
      ],
      "name": "ERC721NonexistentToken",
      "type": "error"
    },
    {
      "anonymous": false,
      "inputs": [
        {
          "indexed": true,
          "internalType": "address",
          "name": "owner",
          "type": "address"
        },
        {
          "indexed": true,
          "internalType": "address",
          "name": "approved",
          "type": "address"
        },
        {
          "indexed": true,
          "internalType": "uint256",
          "name": "tokenId",
          "type": "uint256"
        }
      ],
      "name": "Approval",
      "type": "event"
    },
    {
      "anonymous": false,
      "inputs": [
        {
          "indexed": true,
          "internalType": "address",
          "name": "owner",
          "type": "address"
        },
        {
          "indexed": true,
          "internalType": "address",
          "name": "operator",
          "type": "address"
        },
        {
          "indexed": false,
          "internalType": "bool",
          "name": "approved",
          "type": "bool"
        }
      ],
      "name": "ApprovalForAll",
      "type": "event"
    },
    {
      "anonymous": false,
      "inputs": [
        {
          "indexed": false,
          "internalType": "uint256",
          "name": "_fromTokenId",
          "type": "uint256"
        },
        {
          "indexed": false,
          "internalType": "uint256",
          "name": "_toTokenId",
          "type": "uint256"
        }
      ],
      "name": "BatchMetadataUpdate",
      "type": "event"
    },
    {
      "anonymous": false,
      "inputs": [
        {
          "indexed": false,
          "internalType": "uint256",
          "name": "_tokenId",
          "type": "uint256"
        }
      ],
      "name": "MetadataUpdate",
      "type": "event"
    },
    {
      "anonymous": false,
      "inputs": [
        {
          "indexed": false,
          "internalType": "string",
          "name": "typeEvent",
          "type": "string"
        },
        {
          "indexed": false,
          "internalType": "uint256",
          "name": "dueDate",
          "type": "uint256"
        },
        {
          "indexed": false,
          "internalType": "string",
          "name": "decs",
          "type": "string"
        },
        {
          "indexed": false,
          "internalType": "uint256",
          "name": "id",
          "type": "uint256"
        }
      ],
      "name": "SendNotifyEvent",
      "type": "event"
    },
    {
      "anonymous": false,
      "inputs": [
        {
          "indexed": true,
          "internalType": "address",
          "name": "from",
          "type": "address"
        },
        {
          "indexed": true,
          "internalType": "address",
          "name": "to",
          "type": "address"
        },
        {
          "indexed": true,
          "internalType": "uint256",
          "name": "tokenId",
          "type": "uint256"
        }
      ],
      "name": "Transfer",
      "type": "event"
    },
    {
      "inputs": [
        {
          "internalType": "address",
          "name": "to",
          "type": "address"
        },
        {
          "internalType": "uint256",
          "name": "tokenId",
          "type": "uint256"
        }
      ],
      "name": "approve",
      "outputs": [],
      "stateMutability": "nonpayable",
      "type": "function"
    },
    {
      "inputs": [
        {
          "internalType": "address",
          "name": "owner",
          "type": "address"
        }
      ],
      "name": "balanceOf",
      "outputs": [
        {
          "internalType": "uint256",
          "name": "",
          "type": "uint256"
        }
      ],
      "stateMutability": "view",
      "type": "function",
      "constant": true
    },
    {
      "inputs": [
        {
          "internalType": "uint256",
          "name": "tokenId",
          "type": "uint256"
        }
      ],
      "name": "getApproved",
      "outputs": [
        {
          "internalType": "address",
          "name": "",
          "type": "address"
        }
      ],
      "stateMutability": "view",
      "type": "function",
      "constant": true
    },
    {
      "inputs": [
        {
          "internalType": "address",
          "name": "owner",
          "type": "address"
        },
        {
          "internalType": "address",
          "name": "operator",
          "type": "address"
        }
      ],
      "name": "isApprovedForAll",
      "outputs": [
        {
          "internalType": "bool",
          "name": "",
          "type": "bool"
        }
      ],
      "stateMutability": "view",
      "type": "function",
      "constant": true
    },
    {
      "inputs": [],
      "name": "name",
      "outputs": [
        {
          "internalType": "string",
          "name": "",
          "type": "string"
        }
      ],
      "stateMutability": "view",
      "type": "function",
      "constant": true
    },
    {
      "inputs": [
        {
          "internalType": "uint256",
          "name": "",
          "type": "uint256"
        }
      ],
      "name": "notifications",
      "outputs": [
        {
          "internalType": "string",
          "name": "typeEvent",
          "type": "string"
        },
        {
          "internalType": "uint256",
          "name": "dueDate",
          "type": "uint256"
        },
        {
          "internalType": "string",
          "name": "desc",
          "type": "string"
        },
        {
          "internalType": "uint256",
          "name": "id",
          "type": "uint256"
        }
      ],
      "stateMutability": "view",
      "type": "function",
      "constant": true
    },
    {
      "inputs": [
        {
          "internalType": "uint256",
          "name": "tokenId",
          "type": "uint256"
        }
      ],
      "name": "ownerOf",
      "outputs": [
        {
          "internalType": "address",
          "name": "",
          "type": "address"
        }
      ],
      "stateMutability": "view",
      "type": "function",
      "constant": true
    },
    {
      "inputs": [
        {
          "internalType": "address",
          "name": "from",
          "type": "address"
        },
        {
          "internalType": "address",
          "name": "to",
          "type": "address"
        },
        {
          "internalType": "uint256",
          "name": "tokenId",
          "type": "uint256"
        }
      ],
      "name": "safeTransferFrom",
      "outputs": [],
      "stateMutability": "nonpayable",
      "type": "function"
    },
    {
      "inputs": [
        {
          "internalType": "address",
          "name": "from",
          "type": "address"
        },
        {
          "internalType": "address",
          "name": "to",
          "type": "address"
        },
        {
          "internalType": "uint256",
          "name": "tokenId",
          "type": "uint256"
        },
        {
          "internalType": "bytes",
          "name": "data",
          "type": "bytes"
        }
      ],
      "name": "safeTransferFrom",
      "outputs": [],
      "stateMutability": "nonpayable",
      "type": "function"
    },
    {
      "inputs": [
        {
          "internalType": "address",
          "name": "operator",
          "type": "address"
        },
        {
          "internalType": "bool",
          "name": "approved",
          "type": "bool"
        }
      ],
      "name": "setApprovalForAll",
      "outputs": [],
      "stateMutability": "nonpayable",
      "type": "function"
    },
    {
      "inputs": [
        {
          "internalType": "bytes4",
          "name": "interfaceId",
          "type": "bytes4"
        }
      ],
      "name": "supportsInterface",
      "outputs": [
        {
          "internalType": "bool",
          "name": "",
          "type": "bool"
        }
      ],
      "stateMutability": "view",
      "type": "function",
      "constant": true
    },
    {
      "inputs": [],
      "name": "symbol",
      "outputs": [
        {
          "internalType": "string",
          "name": "",
          "type": "string"
        }
      ],
      "stateMutability": "view",
      "type": "function",
      "constant": true
    },
    {
      "inputs": [
        {
          "internalType": "uint256",
          "name": "",
          "type": "uint256"
        }
      ],
      "name": "termsAndAgreements",
      "outputs": [
        {
          "internalType": "string",
          "name": "",
          "type": "string"
        }
      ],
      "stateMutability": "view",
      "type": "function",
      "constant": true
    },
    {
      "inputs": [
        {
          "internalType": "uint256",
          "name": "tokenId",
          "type": "uint256"
        }
      ],
      "name": "tokenURI",
      "outputs": [
        {
          "internalType": "string",
          "name": "",
          "type": "string"
        }
      ],
      "stateMutability": "view",
      "type": "function",
      "constant": true
    },
    {
      "inputs": [
        {
          "internalType": "address",
          "name": "from",
          "type": "address"
        },
        {
          "internalType": "address",
          "name": "to",
          "type": "address"
        },
        {
          "internalType": "uint256",
          "name": "tokenId",
          "type": "uint256"
        }
      ],
      "name": "transferFrom",
      "outputs": [],
      "stateMutability": "nonpayable",
      "type": "function"
    },
    {
      "inputs": [
        {
          "internalType": "uint256",
          "name": "",
          "type": "uint256"
        }
      ],
      "name": "unitMarket",
      "outputs": [
        {
          "internalType": "uint256",
          "name": "unitId",
          "type": "uint256"
        },
        {
          "internalType": "uint256",
          "name": "unitPrice",
          "type": "uint256"
        },
        {
          "internalType": "string",
          "name": "unitURI",
          "type": "string"
        }
      ],
      "stateMutability": "view",
      "type": "function",
      "constant": true
    },
    {
      "inputs": [
        {
          "internalType": "string",
          "name": "_unitURI",
          "type": "string"
        },
        {
          "internalType": "uint256",
          "name": "_unitPrice",
          "type": "uint256"
        }
      ],
      "name": "mintUnit",
      "outputs": [],
      "stateMutability": "nonpayable",
      "type": "function"
    },
    {
      "inputs": [],
      "name": "getUnitMarket",
      "outputs": [
        {
          "components": [
            {
              "internalType": "uint256",
              "name": "unitId",
              "type": "uint256"
            },
            {
              "internalType": "uint256",
              "name": "unitPrice",
              "type": "uint256"
            },
            {
              "internalType": "string",
              "name": "unitURI",
              "type": "string"
            }
          ],
          "internalType": "struct PostUnit[]",
          "name": "",
          "type": "tuple[]"
        }
      ],
      "stateMutability": "view",
      "type": "function",
      "constant": true
    },
    {
      "inputs": [],
      "name": "getNotifications",
      "outputs": [
        {
          "components": [
            {
              "internalType": "string",
              "name": "typeEvent",
              "type": "string"
            },
            {
              "internalType": "uint256",
              "name": "dueDate",
              "type": "uint256"
            },
            {
              "internalType": "string",
              "name": "desc",
              "type": "string"
            },
            {
              "internalType": "uint256",
              "name": "id",
              "type": "uint256"
            }
          ],
          "internalType": "struct NotifyEvent[]",
          "name": "",
          "type": "tuple[]"
        }
      ],
      "stateMutability": "view",
      "type": "function",
      "constant": true
    },
    {
      "inputs": [
        {
          "internalType": "uint256",
          "name": "_ruleId",
          "type": "uint256"
        }
      ],
      "name": "getPostRule",
      "outputs": [
        {
          "components": [
            {
              "internalType": "uint256",
              "name": "ruleId",
              "type": "uint256"
            },
            {
              "internalType": "string",
              "name": "rule",
              "type": "string"
            },
            {
              "internalType": "uint256",
              "name": "dueDate",
              "type": "uint256"
            },
            {
              "internalType": "bool",
              "name": "status",
              "type": "bool"
            }
          ],
          "internalType": "struct ReturnRule",
          "name": "",
          "type": "tuple"
        }
      ],
      "stateMutability": "view",
      "type": "function",
      "constant": true
    },
    {
      "inputs": [
        {
          "internalType": "uint256",
          "name": "_quotaId",
          "type": "uint256"
        }
      ],
      "name": "getPostQuota",
      "outputs": [
        {
          "components": [
            {
              "internalType": "uint256",
              "name": "quotaId",
              "type": "uint256"
            },
            {
              "internalType": "uint256",
              "name": "totalFee",
              "type": "uint256"
            },
            {
              "internalType": "uint256",
              "name": "payment",
              "type": "uint256"
            },
            {
              "internalType": "uint256",
              "name": "dueDate",
              "type": "uint256"
            },
            {
              "internalType": "bool",
              "name": "status",
              "type": "bool"
            }
          ],
          "internalType": "struct ReturnQuota",
          "name": "",
          "type": "tuple"
        }
      ],
      "stateMutability": "view",
      "type": "function",
      "constant": true
    },
    {
      "inputs": [],
      "name": "isResident",
      "outputs": [
        {
          "internalType": "bool",
          "name": "",
          "type": "bool"
        }
      ],
      "stateMutability": "view",
      "type": "function",
      "constant": true
    },
    {
      "inputs": [
        {
          "internalType": "string",
          "name": "_rule",
          "type": "string"
        }
      ],
      "name": "postRule",
      "outputs": [],
      "stateMutability": "nonpayable",
      "type": "function"
    },
    {
      "inputs": [
        {
          "internalType": "uint256",
          "name": "ruleId",
          "type": "uint256"
        },
        {
          "internalType": "string",
          "name": "_vote",
          "type": "string"
        }
      ],
      "name": "voteRule",
      "outputs": [],
      "stateMutability": "nonpayable",
      "type": "function"
    },
    {
      "inputs": [
        {
          "internalType": "uint256",
          "name": "ruleId",
          "type": "uint256"
        }
      ],
      "name": "passedRule",
      "outputs": [],
      "stateMutability": "nonpayable",
      "type": "function"
    },
    {
      "inputs": [
        {
          "internalType": "uint256",
          "name": "_totalFee",
          "type": "uint256"
        }
      ],
      "name": "postQuota",
      "outputs": [],
      "stateMutability": "nonpayable",
      "type": "function"
    },
    {
      "inputs": [
        {
          "internalType": "uint256",
          "name": "_quotaId",
          "type": "uint256"
        }
      ],
      "name": "payQuota",
      "outputs": [],
      "stateMutability": "payable",
      "type": "function",
      "payable": true
    },
    {
      "inputs": [
        {
          "internalType": "uint256",
          "name": "_quotaId",
          "type": "uint256"
        }
      ],
      "name": "takeQuota",
      "outputs": [],
      "stateMutability": "payable",
      "type": "function",
      "payable": true
    },
    {
      "inputs": [
        {
          "internalType": "uint256",
          "name": "_index",
          "type": "uint256"
        }
      ],
      "name": "buyUnit",
      "outputs": [],
      "stateMutability": "payable",
      "type": "function",
      "payable": true
    },
    {
      "inputs": [],
      "name": "postVisit",
      "outputs": [
        {
          "components": [
            {
              "internalType": "uint256",
              "name": "keyId",
              "type": "uint256"
            },
            {
              "internalType": "uint256",
              "name": "dueDate",
              "type": "uint256"
            },
            {
              "internalType": "bool",
              "name": "status",
              "type": "bool"
            }
          ],
          "internalType": "struct VisitKey",
          "name": "",
          "type": "tuple"
        }
      ],
      "stateMutability": "nonpayable",
      "type": "function"
    }
  ],
  "bytecode": "0x6080604052600060085560006009556000600a556000600b556000600c60006101000a81548161ffff021916908361ffff1602179055503480156200004357600080fd5b506040518060400160405280600881526020017f436f6e646f4e46540000000000000000000000000000000000000000000000008152506040518060400160405280600481526020017f434e4654000000000000000000000000000000000000000000000000000000008152508160009081620000c19190620011aa565b508060019081620000d39190620011aa565b50505033600760006101000a81548173ffffffffffffffffffffffffffffffffffffffff021916908373ffffffffffffffffffffffffffffffffffffffff1602179055506200014d6040518060c00160405280609c8152602001620070b2609c9139614e20620001f5640100000000026401000000009004565b620001836040518060c00160405280609c81526020016200714e609c9139617530620001f5640100000000026401000000009004565b620001b96040518060c0016040528060988152602001620071ea60989139619c40620001f5640100000000026401000000009004565b620001ef6040518060c0016040528060988152602001620072826098913961c350620001f5640100000000026401000000009004565b6200164a565b3373ffffffffffffffffffffffffffffffffffffffff16600760009054906101000a900473ffffffffffffffffffffffffffffffffffffffff1673ffffffffffffffffffffffffffffffffffffffff161462000288576040517f08c379a00000000000000000000000000000000000000000000000000000000081526004016200027f9062001318565b60405180910390fd5b600860008154809291906200029d9062001369565b9190505550600060085442604051602001620002bb929190620013db565b60405160208183030381529060405280519060200120600190049050620002f233826200038c640100000000026401000000009004565b6200030d8184620003bb640100000000026401000000009004565b60006040518060600160405280838152602001848152602001858152509050601081908060018154018082558091505060019003906000526020600020906003020160009091909190915060008201518160000155602082015181600101556040820151816002019081620003839190620011aa565b50505050505050565b620003b78282604051806020016040528060008152506200041b640100000000026401000000009004565b5050565b80600660008481526020019081526020016000209081620003dd9190620011aa565b507ff8e1a15aba9398e019f0b49df1a4fde98ee17ae345cb5f6b5e2c27f5033e8ce7826040516200040f91906200141c565b60405180910390a15050565b62000436838362000459640100000000026401000000009004565b62000454600084848462000569640100000000026401000000009004565b505050565b600073ffffffffffffffffffffffffffffffffffffffff168273ffffffffffffffffffffffffffffffffffffffff1603620004ce5760006040517f64a0ae92000000000000000000000000000000000000000000000000000000008152600401620004c591906200147e565b60405180910390fd5b6000620004ed8383600062000778640100000000026401000000009004565b9050600073ffffffffffffffffffffffffffffffffffffffff168173ffffffffffffffffffffffffffffffffffffffff1614620005645760006040517f73c6ac6e0000000000000000000000000000000000000000000000000000000081526004016200055b91906200147e565b60405180910390fd5b505050565b60008373ffffffffffffffffffffffffffffffffffffffff163b111562000772578273ffffffffffffffffffffffffffffffffffffffff1663150b7a02620005bf620009c8640100000000026401000000009004565b8685856040518563ffffffff167c0100000000000000000000000000000000000000000000000000000000028152600401620005ff949392919062001535565b6020604051808303816000875af19250505080156200063e57506040513d601f19601f820116820180604052508101906200063b9190620015eb565b60015b620006c8573d806000811462000671576040519150601f19603f3d011682016040523d82523d6000602084013e62000676565b606091505b506000815103620006c057836040517f64a0ae92000000000000000000000000000000000000000000000000000000008152600401620006b791906200147e565b60405180910390fd5b805181602001fd5b63150b7a027c0100000000000000000000000000000000000000000000000000000000027bffffffffffffffffffffffffffffffffffffffffffffffffffffffff1916817bffffffffffffffffffffffffffffffffffffffffffffffffffffffff1916146200077057836040517f64a0ae920000000000000000000000000000000000000000000000000000000081526004016200076791906200147e565b60405180910390fd5b505b50505050565b6000806200079584620009d0640100000000026401000000009004565b9050600073ffffffffffffffffffffffffffffffffffffffff168373ffffffffffffffffffffffffffffffffffffffff1614620007e957620007e881848662000a0d640100000000026401000000009004565b5b600073ffffffffffffffffffffffffffffffffffffffff168173ffffffffffffffffffffffffffffffffffffffff16146200088c576200083d60008560008062000ae8640100000000026401000000009004565b6001600360008373ffffffffffffffffffffffffffffffffffffffff1673ffffffffffffffffffffffffffffffffffffffff168152602001908152602001600020600082825403925050819055505b600073ffffffffffffffffffffffffffffffffffffffff168573ffffffffffffffffffffffffffffffffffffffff161462000910576001600360008773ffffffffffffffffffffffffffffffffffffffff1673ffffffffffffffffffffffffffffffffffffffff168152602001908152602001600020600082825401925050819055505b846002600086815260200190815260200160002060006101000a81548173ffffffffffffffffffffffffffffffffffffffff021916908373ffffffffffffffffffffffffffffffffffffffff160217905550838573ffffffffffffffffffffffffffffffffffffffff168273ffffffffffffffffffffffffffffffffffffffff167fddf252ad1be2c89b69c2b068fc378daa952ba7f163c4a11628f55a4df523b3ef60405160405180910390a4809150509392505050565b600033905090565b60006002600083815260200190815260200160002060009054906101000a900473ffffffffffffffffffffffffffffffffffffffff169050919050565b62000a2983838362000cd7640100000000026401000000009004565b62000ae357600073ffffffffffffffffffffffffffffffffffffffff168373ffffffffffffffffffffffffffffffffffffffff160362000aa257806040517f7e27328900000000000000000000000000000000000000000000000000000000815260040162000a9991906200141c565b60405180910390fd5b81816040517f177e802f00000000000000000000000000000000000000000000000000000000815260040162000ada9291906200161d565b60405180910390fd5b505050565b808062000b225750600073ffffffffffffffffffffffffffffffffffffffff168273ffffffffffffffffffffffffffffffffffffffff1614155b1562000c7f57600062000b448462000dbd640100000000026401000000009004565b9050600073ffffffffffffffffffffffffffffffffffffffff168373ffffffffffffffffffffffffffffffffffffffff161415801562000bb057508273ffffffffffffffffffffffffffffffffffffffff168173ffffffffffffffffffffffffffffffffffffffff1614155b801562000bd5575062000bd3818462000e59640100000000026401000000009004565b155b1562000c1a57826040517fa9fbf51f00000000000000000000000000000000000000000000000000000000815260040162000c1191906200147e565b60405180910390fd5b811562000c7d57838573ffffffffffffffffffffffffffffffffffffffff168273ffffffffffffffffffffffffffffffffffffffff167f8c5be1e5ebec7d5bd14f71427d1e84f3dd0314c0f7b2291e5b200ac8c7c3b92560405160405180910390a45b505b836004600085815260200190815260200160002060006101000a81548173ffffffffffffffffffffffffffffffffffffffff021916908373ffffffffffffffffffffffffffffffffffffffff16021790555050505050565b60008073ffffffffffffffffffffffffffffffffffffffff168373ffffffffffffffffffffffffffffffffffffffff161415801562000db457508273ffffffffffffffffffffffffffffffffffffffff168473ffffffffffffffffffffffffffffffffffffffff16148062000d63575062000d62848462000e59640100000000026401000000009004565b5b8062000db357508273ffffffffffffffffffffffffffffffffffffffff1662000d9b8362000eed640100000000026401000000009004565b73ffffffffffffffffffffffffffffffffffffffff16145b5b90509392505050565b60008062000dda83620009d0640100000000026401000000009004565b9050600073ffffffffffffffffffffffffffffffffffffffff168173ffffffffffffffffffffffffffffffffffffffff160362000e5057826040517f7e27328900000000000000000000000000000000000000000000000000000000815260040162000e4791906200141c565b60405180910390fd5b80915050919050565b6000600560008473ffffffffffffffffffffffffffffffffffffffff1673ffffffffffffffffffffffffffffffffffffffff16815260200190815260200160002060008373ffffffffffffffffffffffffffffffffffffffff1673ffffffffffffffffffffffffffffffffffffffff16815260200190815260200160002060009054906101000a900460ff16905092915050565b60006004600083815260200190815260200160002060009054906101000a900473ffffffffffffffffffffffffffffffffffffffff169050919050565b600081519050919050565b7f4e487b7100000000000000000000000000000000000000000000000000000000600052604160045260246000fd5b7f4e487b7100000000000000000000000000000000000000000000000000000000600052602260045260246000fd5b6000600282049050600182168062000fac57607f821691505b60208210810362000fc25762000fc162000f64565b5b50919050565b60008190508160005260206000209050919050565b60006020601f8301049050919050565b60008160020a8302905092915050565b6000600883026200102f7fffffffffffffffffffffffffffffffffffffffffffffffffffffffffffffffff8262000fed565b6200103b868362000fed565b95508019841693508086168417925050509392505050565b6000819050919050565b6000819050919050565b600062001088620010826200107c8462001053565b6200105d565b62001053565b9050919050565b6000819050919050565b620010a48362001067565b620010bc620010b3826200108f565b84845462000ffd565b825550505050565b600090565b620010d3620010c4565b620010e081848462001099565b505050565b5b818110156200110857620010fc600082620010c9565b600181019050620010e6565b5050565b601f8211156200115757620011218162000fc8565b6200112c8462000fdd565b810160208510156200113c578190505b620011546200114b8562000fdd565b830182620010e5565b50505b505050565b60008160020a8304905092915050565b60006200117f600019846008026200115c565b1980831691505092915050565b60006200119a83836200116c565b9150826002028217905092915050565b620011b58262000f2a565b67ffffffffffffffff811115620011d157620011d062000f35565b5b620011dd825462000f93565b620011ea8282856200110c565b600060209050601f8311600181146200122257600084156200120d578287015190505b6200121985826200118c565b86555062001289565b601f198416620012328662000fc8565b60005b828110156200125c5784890151825560018201915060208501945060208101905062001235565b868310156200127c578489015162001278601f8916826200116c565b8355505b6001600288020188555050505b505050505050565b600082825260208201905092915050565b7f536f7272792c20796f7520646f206e6f7420686176652074686520726967687460008201527f20746f206578656375746520746869732e000000000000000000000000000000602082015250565b60006200130060318362001291565b91506200130d82620012a2565b604082019050919050565b600060208201905081810360008301526200133381620012f1565b9050919050565b7f4e487b7100000000000000000000000000000000000000000000000000000000600052601160045260246000fd5b6000620013768262001053565b91507fffffffffffffffffffffffffffffffffffffffffffffffffffffffffffffffff8203620013ab57620013aa6200133a565b5b600182019050919050565b6000819050919050565b620013d5620013cf8262001053565b620013b6565b82525050565b6000620013e98285620013c0565b602082019150620013fb8284620013c0565b6020820191508190509392505050565b620014168162001053565b82525050565b60006020820190506200143360008301846200140b565b92915050565b600073ffffffffffffffffffffffffffffffffffffffff82169050919050565b6000620014668262001439565b9050919050565b620014788162001459565b82525050565b60006020820190506200149560008301846200146d565b92915050565b600081519050919050565b600082825260208201905092915050565b60005b83811015620014d7578082015181840152602081019050620014ba565b60008484015250505050565b6000601f19601f8301169050919050565b600062001501826200149b565b6200150d8185620014a6565b93506200151f818560208601620014b7565b6200152a81620014e3565b840191505092915050565b60006080820190506200154c60008301876200146d565b6200155b60208301866200146d565b6200156a60408301856200140b565b81810360608301526200157e8184620014f4565b905095945050505050565b600080fd5b60007fffffffff0000000000000000000000000000000000000000000000000000000082169050919050565b620015c5816200158e565b8114620015d157600080fd5b50565b600081519050620015e581620015ba565b92915050565b60006020828403121562001604576200160362001589565b5b60006200161484828501620015d4565b91505092915050565b60006040820190506200163460008301856200146d565b6200164360208301846200140b565b9392505050565b615a58806200165a6000396000f3fe6080604052600436106101ea576000357c010000000000000000000000000000000000000000000000000000000090048063804e523511610114578063be702508116100b2578063cf8ec10d11610081578063cf8ec10d146106c7578063e74e1d1e146106f2578063e985e9c51461071b578063fbe0a89514610758576101ea565b8063be70250814610606578063c87b56dd14610643578063c9c1f65d14610680578063cf48bd2c1461069c576101ea565b8063a22cb465116100ee578063a22cb4651461054e578063a359b74714610577578063aa5a284b146105a0578063b88d4fde146105dd576101ea565b8063804e5235146104ca5780638c44bbe3146104e657806395d89b4114610523576101ea565b806334c1f9441161018c5780636352211e1161015b5780636352211e146103e857806370a082311461042557806374fd9f721461046257806375c891251461048b576101ea565b806334c1f9441461033a5780633ce8da0e1461037a57806342842e0e14610396578063631501c4146103bf576101ea565b8063081812fc116101c8578063081812fc14610282578063095ea7b3146102bf5780630e5d37d5146102e857806323b872dd14610311576101ea565b806301ffc9a7146101ef5780630525a79a1461022c57806306fdde0314610257575b600080fd5b3480156101fb57600080fd5b5061021660048036038101906102119190613b7f565b610783565b6040516102239190613bc7565b60405180910390f35b34801561023857600080fd5b50610241610800565b60405161024e9190613c4c565b60405180910390f35b34801561026357600080fd5b5061026c610a33565b6040516102799190613cf7565b60405180910390f35b34801561028e57600080fd5b506102a960048036038101906102a49190613d45565b610ac5565b6040516102b69190613db3565b60405180910390f35b3480156102cb57600080fd5b506102e660048036038101906102e19190613dfa565b610ae1565b005b3480156102f457600080fd5b5061030f600480360381019061030a9190613f6f565b610af7565b005b34801561031d57600080fd5b5061033860048036038101906103339190613fcb565b610da0565b005b34801561034657600080fd5b50610361600480360381019061035c9190613d45565b610ea2565b604051610371949392919061402d565b60405180910390f35b610394600480360381019061038f9190613d45565b610ff2565b005b3480156103a257600080fd5b506103bd60048036038101906103b89190613fcb565b611156565b005b3480156103cb57600080fd5b506103e660048036038101906103e19190613d45565b611176565b005b3480156103f457600080fd5b5061040f600480360381019061040a9190613d45565b611415565b60405161041c9190613db3565b60405180910390f35b34801561043157600080fd5b5061044c60048036038101906104479190614080565b611427565b60405161045991906140ad565b60405180910390f35b34801561046e57600080fd5b50610489600480360381019061048491906140c8565b6114e1565b005b34801561049757600080fd5b506104b260048036038101906104ad9190613d45565b61164d565b6040516104c193929190614124565b60405180910390f35b6104e460048036038101906104df9190613d45565b61170f565b005b3480156104f257600080fd5b5061050d60048036038101906105089190613d45565b61194b565b60405161051a91906141ca565b60405180910390f35b34801561052f57600080fd5b506105386119bc565b6040516105459190613cf7565b60405180910390f35b34801561055a57600080fd5b5061057560048036038101906105709190614211565b611a4e565b005b34801561058357600080fd5b5061059e60048036038101906105999190614251565b611a64565b005b3480156105ac57600080fd5b506105c760048036038101906105c29190613d45565b611cc4565b6040516105d49190614347565b60405180910390f35b3480156105e957600080fd5b5061060460048036038101906105ff919061440a565b611db3565b005b34801561061257600080fd5b5061062d60048036038101906106289190613d45565b611dd0565b60405161063a9190613cf7565b60405180910390f35b34801561064f57600080fd5b5061066a60048036038101906106659190613d45565b611e7c565b6040516106779190613cf7565b60405180910390f35b61069a60048036038101906106959190613d45565b611f8f565b005b3480156106a857600080fd5b506106b161232b565b6040516106be91906145b9565b60405180910390f35b3480156106d357600080fd5b506106dc6124c2565b6040516106e991906146ed565b60405180910390f35b3480156106fe57600080fd5b5061071960048036038101906107149190613d45565b6125c7565b005b34801561072757600080fd5b50610742600480360381019061073d919061470f565b612816565b60405161074f9190613bc7565b60405180910390f35b34801561076457600080fd5b5061076d6128aa565b60405161077a9190613bc7565b60405180910390f35b600063490649067c0100000000000000000000000000000000000000000000000000000000027bffffffffffffffffffffffffffffffffffffffffffffffffffffffff1916827bffffffffffffffffffffffffffffffffffffffffffffffffffffffff191614806107f957506107f882612903565b5b9050919050565b610808613a38565b6000600d60003373ffffffffffffffffffffffffffffffffffffffff1673ffffffffffffffffffffffffffffffffffffffff168152602001908152602001600020540361088a576040517f08c379a0000000000000000000000000000000000000000000000000000000008152600401610881906147c1565b60405180910390fd5b6009600081548092919061089d90614810565b919050555060006009546040516020016108b79190614879565b60405160208183030381529060405280519060200120600190049050600062015180426108e49190614894565b90506000604051806060016040528060258152602001615950602591399050600060405180608001604052806040518060400160405280600781526020017f56697369746f720000000000000000000000000000000000000000000000000081525081526020018481526020018381526020018581525090506011819080600181540180825580915050600190039060005260206000209060040201600090919091909150600082015181600001908161099e9190614ada565b506020820151816001015560408201518160020190816109be9190614ada565b506060820151816003015550507f17d4a29c188b51e349cd1d98ba8e64e4562bcd792124111b42af5fbd23e644cb8383866040516109fe93929190614bf8565b60405180910390a160006040518060600160405280868152602001858152602001600115158152509050809550505050505090565b606060008054610a42906148f7565b80601f0160208091040260200160405190810160405280929190818152602001828054610a6e906148f7565b8015610abb5780601f10610a9057610100808354040283529160200191610abb565b820191906000526020600020905b815481529060010190602001808311610a9e57829003601f168201915b5050505050905090565b6000610ad0826129e5565b50610ada82612a6d565b9050919050565b610af38282610aee612aaa565b612ab2565b5050565b6000600d60003373ffffffffffffffffffffffffffffffffffffffff1673ffffffffffffffffffffffffffffffffffffffff1681526020019081526020016000205403610b79576040517f08c379a0000000000000000000000000000000000000000000000000000000008152600401610b70906147c1565b60405180910390fd5b6000600e600084815260200190815260200160002090508060040160003373ffffffffffffffffffffffffffffffffffffffff1673ffffffffffffffffffffffffffffffffffffffff16815260200190815260200160002060009054906101000a900460ff1615610c1f576040517f08c379a0000000000000000000000000000000000000000000000000000000008152600401610c1690614cbb565b60405180910390fd5b8060050160009054906101000a900460ff16610c70576040517f08c379a0000000000000000000000000000000000000000000000000000000008152600401610c6790614d27565b60405180910390fd5b604051602001610c7f90614d9e565b6040516020818303038152906040528051906020012082604051602001610ca69190614de4565b6040516020818303038152906040528051906020012003610d035780600201600081819054906101000a900461ffff1680929190610ce390614e09565b91906101000a81548161ffff021916908361ffff16021790555050610d41565b80600201600281819054906101000a900461ffff1680929190610d2590614e09565b91906101000a81548161ffff021916908361ffff160217905550505b60018160040160003373ffffffffffffffffffffffffffffffffffffffff1673ffffffffffffffffffffffffffffffffffffffff16815260200190815260200160002060006101000a81548160ff021916908315150217905550505050565b600073ffffffffffffffffffffffffffffffffffffffff168273ffffffffffffffffffffffffffffffffffffffff1603610e125760006040517f64a0ae92000000000000000000000000000000000000000000000000000000008152600401610e099190613db3565b60405180910390fd5b6000610e268383610e21612aaa565b612ac4565b90508373ffffffffffffffffffffffffffffffffffffffff168173ffffffffffffffffffffffffffffffffffffffff1614610e9c578382826040517f64283d7b000000000000000000000000000000000000000000000000000000008152600401610e9393929190614e33565b60405180910390fd5b50505050565b60118181548110610eb257600080fd5b9060005260206000209060040201600091509050806000018054610ed5906148f7565b80601f0160208091040260200160405190810160405280929190818152602001828054610f01906148f7565b8015610f4e5780601f10610f2357610100808354040283529160200191610f4e565b820191906000526020600020905b815481529060010190602001808311610f3157829003601f168201915b505050505090806001015490806002018054610f69906148f7565b80601f0160208091040260200160405190810160405280929190818152602001828054610f95906148f7565b8015610fe25780601f10610fb757610100808354040283529160200191610fe2565b820191906000526020600020905b815481529060010190602001808311610fc557829003601f168201915b5050505050908060030154905084565b3373ffffffffffffffffffffffffffffffffffffffff16600760009054906101000a900473ffffffffffffffffffffffffffffffffffffffff1673ffffffffffffffffffffffffffffffffffffffff1614611082576040517f08c379a000000000000000000000000000000000000000000000000000000000815260040161107990614edc565b60405180910390fd5b6000600f600083815260200190815260200160002090508060060160009054906101000a900460ff166110ea576040517f08c379a00000000000000000000000000000000000000000000000000000000081526004016110e190614f48565b60405180910390fd5b60008160060160006101000a81548160ff0219169083151502179055503373ffffffffffffffffffffffffffffffffffffffff166108fc82600201549081150290604051600060405180830381858888f19350505050158015611151573d6000803e3d6000fd5b505050565b61117183838360405180602001604052806000815250611db3565b505050565b3373ffffffffffffffffffffffffffffffffffffffff16600760009054906101000a900473ffffffffffffffffffffffffffffffffffffffff1673ffffffffffffffffffffffffffffffffffffffff1614611206576040517f08c379a00000000000000000000000000000000000000000000000000000000081526004016111fd90614edc565b60405180910390fd5b600b600081548092919061121990614810565b91905055506000600b5442604051602001611235929190614f68565b60405160208183030381529060405280519060200120600190049050600062278d00426112629190614894565b905060006001600c60009054906101000a900461ffff1661ffff16856112889190614fc3565b6112929190614894565b90506000600f6000858152602001908152602001600020905083816000018190555084816001018190555082816004018190555081816003018190555060018160060160006101000a81548160ff02191690831515021790555060006040518060a00160405280607981526020016159aa607991399050600060405180608001604052806040518060400160405280600581526020017f51756f74610000000000000000000000000000000000000000000000000000008152508152602001868152602001838152602001878152509050601181908060018154018082558091505060019003906000526020600020906004020160009091909190915060008201518160000190816113a49190614ada565b506020820151816001015560408201518160020190816113c49190614ada565b506060820151816003015550507f17d4a29c188b51e349cd1d98ba8e64e4562bcd792124111b42af5fbd23e644cb85838860405161140493929190615040565b60405180910390a150505050505050565b6000611420826129e5565b9050919050565b60008073ffffffffffffffffffffffffffffffffffffffff168273ffffffffffffffffffffffffffffffffffffffff160361149a5760006040517f89c62b640000000000000000000000000000000000000000000000000000000081526004016114919190613db3565b60405180910390fd5b600360008373ffffffffffffffffffffffffffffffffffffffff1673ffffffffffffffffffffffffffffffffffffffff168152602001908152602001600020549050919050565b3373ffffffffffffffffffffffffffffffffffffffff16600760009054906101000a900473ffffffffffffffffffffffffffffffffffffffff1673ffffffffffffffffffffffffffffffffffffffff1614611571576040517f08c379a000000000000000000000000000000000000000000000000000000000815260040161156890614edc565b60405180910390fd5b6008600081548092919061158490614810565b91905055506000600854426040516020016115a0929190614f68565b604051602081830303815290604052805190602001206001900490506115c63382612cde565b6115d08184612cfc565b600060405180606001604052808381526020018481526020018581525090506010819080600181540180825580915050600190039060005260206000209060030201600090919091909150600082015181600001556020820151816001015560408201518160020190816116449190614ada565b50505050505050565b6010818154811061165d57600080fd5b906000526020600020906003020160009150905080600001549080600101549080600201805461168c906148f7565b80601f01602080910402602001604051908101604052809291908181526020018280546116b8906148f7565b80156117055780601f106116da57610100808354040283529160200191611705565b820191906000526020600020905b8154815290600101906020018083116116e857829003601f168201915b5050505050905083565b6000600d60003373ffffffffffffffffffffffffffffffffffffffff1673ffffffffffffffffffffffffffffffffffffffff1681526020019081526020016000205403611791576040517f08c379a0000000000000000000000000000000000000000000000000000000008152600401611788906147c1565b60405180910390fd5b6000600f60008381526020019081526020016000209050348160030154146117ee576040517f08c379a00000000000000000000000000000000000000000000000000000000081526004016117e590615103565b60405180910390fd5b8060050160003373ffffffffffffffffffffffffffffffffffffffff1673ffffffffffffffffffffffffffffffffffffffff16815260200190815260200160002060009054906101000a900460ff161561187d576040517f08c379a00000000000000000000000000000000000000000000000000000000081526004016118749061516f565b60405180910390fd5b8060060160009054906101000a900460ff166118ce576040517f08c379a00000000000000000000000000000000000000000000000000000000081526004016118c5906151db565b60405180910390fd5b80600301548160020160008282546118e69190614894565b9250508190555060018160050160003373ffffffffffffffffffffffffffffffffffffffff1673ffffffffffffffffffffffffffffffffffffffff16815260200190815260200160002060006101000a81548160ff0219169083151502179055505050565b611953613a5b565b6000600f600084815260200190815260200160002090506040518060a00160405280826000015481526020018260010154815260200182600301548152602001826004015481526020018260060160009054906101000a900460ff161515815250915050919050565b6060600180546119cb906148f7565b80601f01602080910402602001604051908101604052809291908181526020018280546119f7906148f7565b8015611a445780601f10611a1957610100808354040283529160200191611a44565b820191906000526020600020905b815481529060010190602001808311611a2757829003601f168201915b5050505050905090565b611a60611a59612aaa565b8383612d58565b5050565b6000600d60003373ffffffffffffffffffffffffffffffffffffffff1673ffffffffffffffffffffffffffffffffffffffff1681526020019081526020016000205403611ae6576040517f08c379a0000000000000000000000000000000000000000000000000000000008152600401611add906147c1565b60405180910390fd5b600a6000815480929190611af990614810565b91905055506000600a5442604051602001611b15929190614f68565b60405160208183030381529060405280519060200120600190049050600062278d0042611b429190614894565b90506000600e6000848152602001908152602001600020905082816000018190555083816001019081611b759190614ada565b5081816003018190555060018160050160006101000a81548160ff02191690831515021790555060006040518060a00160405280606c81526020016158a6606c91399050600060405180608001604052806040518060400160405280600981526020017f506f73742052756c650000000000000000000000000000000000000000000000815250815260200185815260200183815260200186815250905060118190806001815401808255809150506001900390600052602060002090600402016000909190919091506000820151816000019081611c549190614ada565b50602082015181600101556040820151816002019081611c749190614ada565b506060820151816003015550507f17d4a29c188b51e349cd1d98ba8e64e4562bcd792124111b42af5fbd23e644cb848387604051611cb493929190615247565b60405180910390a1505050505050565b611ccc613a8c565b6000600e60008481526020019081526020016000209050604051806080016040528082600001548152602001826001018054611d07906148f7565b80601f0160208091040260200160405190810160405280929190818152602001828054611d33906148f7565b8015611d805780601f10611d5557610100808354040283529160200191611d80565b820191906000526020600020905b815481529060010190602001808311611d6357829003601f168201915b50505050508152602001826003015481526020018260050160009054906101000a900460ff161515815250915050919050565b611dbe848484610da0565b611dca84848484612ec7565b50505050565b60128181548110611de057600080fd5b906000526020600020016000915090508054611dfb906148f7565b80601f0160208091040260200160405190810160405280929190818152602001828054611e27906148f7565b8015611e745780601f10611e4957610100808354040283529160200191611e74565b820191906000526020600020905b815481529060010190602001808311611e5757829003601f168201915b505050505081565b6060611e87826129e5565b506000600660008481526020019081526020016000208054611ea8906148f7565b80601f0160208091040260200160405190810160405280929190818152602001828054611ed4906148f7565b8015611f215780601f10611ef657610100808354040283529160200191611f21565b820191906000526020600020905b815481529060010190602001808311611f0457829003601f168201915b505050505090506000611f326130b6565b90506000815103611f47578192505050611f8a565b600082511115611f7c578082604051602001611f64929190615298565b60405160208183030381529060405292505050611f8a565b611f85846130cd565b925050505b919050565b600060108281548110611fa557611fa46152bc565b5b9060005260206000209060030201905080600101543414611ffb576040517f08c379a0000000000000000000000000000000000000000000000000000000008152600401611ff29061535d565b60405180910390fd5b600061200a8260000154611415565b905061201b81338460000154613136565b6000600d60008373ffffffffffffffffffffffffffffffffffffffff1673ffffffffffffffffffffffffffffffffffffffff168152602001908152602001600020819055508160000154600d60003373ffffffffffffffffffffffffffffffffffffffff1673ffffffffffffffffffffffffffffffffffffffff16815260200190815260200160002081905550601060016010805490506120bc919061537d565b815481106120cd576120cc6152bc565b5b9060005260206000209060030201601084815481106120ef576120ee6152bc565b5b906000526020600020906003020160008201548160000155600182015481600101556002820181600201908161212591906153c7565b50905050601080548061213b5761213a6154af565b5b600190038181906000526020600020906003020160008082016000905560018201600090556002820160006121709190613ab6565b5050905560004290506000604051806060016040528060358152602001615975603591399050600060405180608001604052806040518060400160405280600c81526020017f4e6577205265736964656e740000000000000000000000000000000000000000815250815260200184815260200183815260200186600001548152509050601181908060018154018082558091505060019003906000526020600020906004020160009091909190915060008201518160000190816122359190614ada565b506020820151816001015560408201518160020190816122559190614ada565b506060820151816003015550507f17d4a29c188b51e349cd1d98ba8e64e4562bcd792124111b42af5fbd23e644cb838387600001546040516122999392919061552a565b60405180910390a1600c600081819054906101000a900461ffff16809291906122c190614e09565b91906101000a81548161ffff021916908361ffff160217905550508373ffffffffffffffffffffffffffffffffffffffff166108fc349081150290604051600060405180830381858888f19350505050158015612322573d6000803e3d6000fd5b50505050505050565b60606011805480602002602001604051908101604052809291908181526020016000905b828210156124b95783829060005260206000209060040201604051806080016040529081600082018054612382906148f7565b80601f01602080910402602001604051908101604052809291908181526020018280546123ae906148f7565b80156123fb5780601f106123d0576101008083540402835291602001916123fb565b820191906000526020600020905b8154815290600101906020018083116123de57829003601f168201915b505050505081526020016001820154815260200160028201805461241e906148f7565b80601f016020809104026020016040519081016040528092919081815260200182805461244a906148f7565b80156124975780601f1061246c57610100808354040283529160200191612497565b820191906000526020600020905b81548152906001019060200180831161247a57829003601f168201915b505050505081526020016003820154815250508152602001906001019061234f565b50505050905090565b60606010805480602002602001604051908101604052809291908181526020016000905b828210156125be5783829060005260206000209060030201604051806060016040529081600082015481526020016001820154815260200160028201805461252d906148f7565b80601f0160208091040260200160405190810160405280929190818152602001828054612559906148f7565b80156125a65780601f1061257b576101008083540402835291602001916125a6565b820191906000526020600020905b81548152906001019060200180831161258957829003601f168201915b505050505081525050815260200190600101906124e6565b50505050905090565b3373ffffffffffffffffffffffffffffffffffffffff16600760009054906101000a900473ffffffffffffffffffffffffffffffffffffffff1673ffffffffffffffffffffffffffffffffffffffff1614612657576040517f08c379a000000000000000000000000000000000000000000000000000000000815260040161264e90614edc565b60405180910390fd5b6000600e60008381526020019081526020016000209050603c61268b8260020160009054906101000a900461ffff16613156565b61ffff1610612812576012816001019080600181540180825580915050600190039060005260206000200160009091909190915090816126cb91906155a6565b5060008160050160006101000a81548160ff021916908315150217905550600042905060006040518060600160405280603e8152602001615912603e91399050600060405180608001604052806040518060400160405280600881526020017f4e65772052756c650000000000000000000000000000000000000000000000008152508152602001848152602001838152602001868152509050601181908060018154018082558091505060019003906000526020600020906004020160009091909190915060008201518160000190816127a69190614ada565b506020820151816001015560408201518160020190816127c69190614ada565b506060820151816003015550507f17d4a29c188b51e349cd1d98ba8e64e4562bcd792124111b42af5fbd23e644cb838387604051612806939291906156da565b60405180910390a15050505b5050565b6000600560008473ffffffffffffffffffffffffffffffffffffffff1673ffffffffffffffffffffffffffffffffffffffff16815260200190815260200160002060008373ffffffffffffffffffffffffffffffffffffffff1673ffffffffffffffffffffffffffffffffffffffff16815260200190815260200160002060009054906101000a900460ff16905092915050565b600080600d60003373ffffffffffffffffffffffffffffffffffffffff1673ffffffffffffffffffffffffffffffffffffffff16815260200190815260200160002054146128fb5760019050612900565b600090505b90565b60007f80ac58cd000000000000000000000000000000000000000000000000000000007bffffffffffffffffffffffffffffffffffffffffffffffffffffffff1916827bffffffffffffffffffffffffffffffffffffffffffffffffffffffff191614806129ce57507f5b5e139f000000000000000000000000000000000000000000000000000000007bffffffffffffffffffffffffffffffffffffffffffffffffffffffff1916827bffffffffffffffffffffffffffffffffffffffffffffffffffffffff1916145b806129de57506129dd82613187565b5b9050919050565b6000806129f1836131f1565b9050600073ffffffffffffffffffffffffffffffffffffffff168173ffffffffffffffffffffffffffffffffffffffff1603612a6457826040517f7e273289000000000000000000000000000000000000000000000000000000008152600401612a5b91906140ad565b60405180910390fd5b80915050919050565b60006004600083815260200190815260200160002060009054906101000a900473ffffffffffffffffffffffffffffffffffffffff169050919050565b600033905090565b612abf838383600161322e565b505050565b600080612ad0846131f1565b9050600073ffffffffffffffffffffffffffffffffffffffff168373ffffffffffffffffffffffffffffffffffffffff1614612b1257612b118184866133f3565b5b600073ffffffffffffffffffffffffffffffffffffffff168173ffffffffffffffffffffffffffffffffffffffff1614612ba357612b5460008560008061322e565b6001600360008373ffffffffffffffffffffffffffffffffffffffff1673ffffffffffffffffffffffffffffffffffffffff168152602001908152602001600020600082825403925050819055505b600073ffffffffffffffffffffffffffffffffffffffff168573ffffffffffffffffffffffffffffffffffffffff1614612c26576001600360008773ffffffffffffffffffffffffffffffffffffffff1673ffffffffffffffffffffffffffffffffffffffff168152602001908152602001600020600082825401925050819055505b846002600086815260200190815260200160002060006101000a81548173ffffffffffffffffffffffffffffffffffffffff021916908373ffffffffffffffffffffffffffffffffffffffff160217905550838573ffffffffffffffffffffffffffffffffffffffff168273ffffffffffffffffffffffffffffffffffffffff167fddf252ad1be2c89b69c2b068fc378daa952ba7f163c4a11628f55a4df523b3ef60405160405180910390a4809150509392505050565b612cf88282604051806020016040528060008152506134b7565b5050565b80600660008481526020019081526020016000209081612d1c9190614ada565b507ff8e1a15aba9398e019f0b49df1a4fde98ee17ae345cb5f6b5e2c27f5033e8ce782604051612d4c91906140ad565b60405180910390a15050565b600073ffffffffffffffffffffffffffffffffffffffff168273ffffffffffffffffffffffffffffffffffffffff1603612dc957816040517f5b08ba18000000000000000000000000000000000000000000000000000000008152600401612dc09190613db3565b60405180910390fd5b80600560008573ffffffffffffffffffffffffffffffffffffffff1673ffffffffffffffffffffffffffffffffffffffff16815260200190815260200160002060008473ffffffffffffffffffffffffffffffffffffffff1673ffffffffffffffffffffffffffffffffffffffff16815260200190815260200160002060006101000a81548160ff0219169083151502179055508173ffffffffffffffffffffffffffffffffffffffff168373ffffffffffffffffffffffffffffffffffffffff167f17307eab39ab6107e8899845ad3d59bd9653f200f220920489ca2b5937696c3183604051612eba9190613bc7565b60405180910390a3505050565b60008373ffffffffffffffffffffffffffffffffffffffff163b11156130b0578273ffffffffffffffffffffffffffffffffffffffff1663150b7a02612f0b612aaa565b8685856040518563ffffffff167c0100000000000000000000000000000000000000000000000000000000028152600401612f499493929190615780565b6020604051808303816000875af1925050508015612f8557506040513d601f19601f82011682018060405250810190612f8291906157e1565b60015b613009573d8060008114612fb5576040519150601f19603f3d011682016040523d82523d6000602084013e612fba565b606091505b50600081510361300157836040517f64a0ae92000000000000000000000000000000000000000000000000000000008152600401612ff89190613db3565b60405180910390fd5b805181602001fd5b63150b7a027c0100000000000000000000000000000000000000000000000000000000027bffffffffffffffffffffffffffffffffffffffffffffffffffffffff1916817bffffffffffffffffffffffffffffffffffffffffffffffffffffffff1916146130ae57836040517f64a0ae920000000000000000000000000000000000000000000000000000000081526004016130a59190613db3565b60405180910390fd5b505b50505050565b606060405180602001604052806000815250905090565b60606130d8826129e5565b5060006130e36130b6565b90506000815111613103576040518060200160405280600081525061312e565b8061310d846134d3565b60405160200161311e929190615298565b6040516020818303038152906040525b915050919050565b613151838383604051806020016040528060008152506135a1565b505050565b6000600c60009054906101000a900461ffff16606483613176919061580e565b613180919061584b565b9050919050565b60007f01ffc9a7000000000000000000000000000000000000000000000000000000007bffffffffffffffffffffffffffffffffffffffffffffffffffffffff1916827bffffffffffffffffffffffffffffffffffffffffffffffffffffffff1916149050919050565b60006002600083815260200190815260200160002060009054906101000a900473ffffffffffffffffffffffffffffffffffffffff169050919050565b80806132675750600073ffffffffffffffffffffffffffffffffffffffff168273ffffffffffffffffffffffffffffffffffffffff1614155b1561339b576000613277846129e5565b9050600073ffffffffffffffffffffffffffffffffffffffff168373ffffffffffffffffffffffffffffffffffffffff16141580156132e257508273ffffffffffffffffffffffffffffffffffffffff168173ffffffffffffffffffffffffffffffffffffffff1614155b80156132f557506132f38184612816565b155b1561333757826040517fa9fbf51f00000000000000000000000000000000000000000000000000000000815260040161332e9190613db3565b60405180910390fd5b811561339957838573ffffffffffffffffffffffffffffffffffffffff168273ffffffffffffffffffffffffffffffffffffffff167f8c5be1e5ebec7d5bd14f71427d1e84f3dd0314c0f7b2291e5b200ac8c7c3b92560405160405180910390a45b505b836004600085815260200190815260200160002060006101000a81548173ffffffffffffffffffffffffffffffffffffffff021916908373ffffffffffffffffffffffffffffffffffffffff16021790555050505050565b6133fe8383836135be565b6134b257600073ffffffffffffffffffffffffffffffffffffffff168373ffffffffffffffffffffffffffffffffffffffff160361347357806040517f7e27328900000000000000000000000000000000000000000000000000000000815260040161346a91906140ad565b60405180910390fd5b81816040517f177e802f0000000000000000000000000000000000000000000000000000000081526004016134a992919061587c565b60405180910390fd5b505050565b6134c1838361367f565b6134ce6000848484612ec7565b505050565b6060600060016134e284613778565b01905060008167ffffffffffffffff81111561350157613500613e44565b5b6040519080825280601f01601f1916602001820160405280156135335781602001600182028036833780820191505090505b509050600082602001820190505b600115613596578080600190039150507f3031323334353637383961626364656600000000000000000000000000000000600a86061a8153600a858161358a57613589614f94565b5b04945060008503613541575b819350505050919050565b6135ac8484846138cb565b6135b884848484612ec7565b50505050565b60008073ffffffffffffffffffffffffffffffffffffffff168373ffffffffffffffffffffffffffffffffffffffff161415801561367657508273ffffffffffffffffffffffffffffffffffffffff168473ffffffffffffffffffffffffffffffffffffffff16148061363757506136368484612816565b5b8061367557508273ffffffffffffffffffffffffffffffffffffffff1661365d83612a6d565b73ffffffffffffffffffffffffffffffffffffffff16145b5b90509392505050565b600073ffffffffffffffffffffffffffffffffffffffff168273ffffffffffffffffffffffffffffffffffffffff16036136f15760006040517f64a0ae920000000000000000000000000000000000000000000000000000000081526004016136e89190613db3565b60405180910390fd5b60006136ff83836000612ac4565b9050600073ffffffffffffffffffffffffffffffffffffffff168173ffffffffffffffffffffffffffffffffffffffff16146137735760006040517f73c6ac6e00000000000000000000000000000000000000000000000000000000815260040161376a9190613db3565b60405180910390fd5b505050565b600080600090507a184f03e93ff9f4daa797ed6e38ed64bf6a1f01000000000000000083106137d6577a184f03e93ff9f4daa797ed6e38ed64bf6a1f01000000000000000083816137cc576137cb614f94565b5b0492506040810190505b6d04ee2d6d415b85acef81000000008310613813576d04ee2d6d415b85acef8100000000838161380957613808614f94565b5b0492506020810190505b662386f26fc10000831061384257662386f26fc10000838161383857613837614f94565b5b0492506010810190505b6305f5e100831061386b576305f5e100838161386157613860614f94565b5b0492506008810190505b612710831061389057612710838161388657613885614f94565b5b0492506004810190505b606483106138b357606483816138a9576138a8614f94565b5b0492506002810190505b600a83106138c2576001810190505b80915050919050565b600073ffffffffffffffffffffffffffffffffffffffff168273ffffffffffffffffffffffffffffffffffffffff160361393d5760006040517f64a0ae920000000000000000000000000000000000000000000000000000000081526004016139349190613db3565b60405180910390fd5b600061394b83836000612ac4565b9050600073ffffffffffffffffffffffffffffffffffffffff168173ffffffffffffffffffffffffffffffffffffffff16036139be57816040517f7e2732890000000000000000000000000000000000000000000000000000000081526004016139b591906140ad565b60405180910390fd5b8373ffffffffffffffffffffffffffffffffffffffff168173ffffffffffffffffffffffffffffffffffffffff1614613a32578382826040517f64283d7b000000000000000000000000000000000000000000000000000000008152600401613a2993929190614e33565b60405180910390fd5b50505050565b604051806060016040528060008152602001600081526020016000151581525090565b6040518060a00160405280600081526020016000815260200160008152602001600081526020016000151581525090565b60405180608001604052806000815260200160608152602001600081526020016000151581525090565b508054613ac2906148f7565b6000825580601f10613ad45750613af3565b601f016020900490600052602060002090810190613af29190613af6565b5b50565b5b80821115613b0f576000816000905550600101613af7565b5090565b6000604051905090565b600080fd5b600080fd5b60007fffffffff0000000000000000000000000000000000000000000000000000000082169050919050565b613b5c81613b27565b8114613b6757600080fd5b50565b600081359050613b7981613b53565b92915050565b600060208284031215613b9557613b94613b1d565b5b6000613ba384828501613b6a565b91505092915050565b60008115159050919050565b613bc181613bac565b82525050565b6000602082019050613bdc6000830184613bb8565b92915050565b6000819050919050565b613bf581613be2565b82525050565b613c0481613bac565b82525050565b606082016000820151613c206000850182613bec565b506020820151613c336020850182613bec565b506040820151613c466040850182613bfb565b50505050565b6000606082019050613c616000830184613c0a565b92915050565b600081519050919050565b600082825260208201905092915050565b60005b83811015613ca1578082015181840152602081019050613c86565b60008484015250505050565b6000601f19601f8301169050919050565b6000613cc982613c67565b613cd38185613c72565b9350613ce3818560208601613c83565b613cec81613cad565b840191505092915050565b60006020820190508181036000830152613d118184613cbe565b905092915050565b613d2281613be2565b8114613d2d57600080fd5b50565b600081359050613d3f81613d19565b92915050565b600060208284031215613d5b57613d5a613b1d565b5b6000613d6984828501613d30565b91505092915050565b600073ffffffffffffffffffffffffffffffffffffffff82169050919050565b6000613d9d82613d72565b9050919050565b613dad81613d92565b82525050565b6000602082019050613dc86000830184613da4565b92915050565b613dd781613d92565b8114613de257600080fd5b50565b600081359050613df481613dce565b92915050565b60008060408385031215613e1157613e10613b1d565b5b6000613e1f85828601613de5565b9250506020613e3085828601613d30565b9150509250929050565b600080fd5b600080fd5b7f4e487b7100000000000000000000000000000000000000000000000000000000600052604160045260246000fd5b613e7c82613cad565b810181811067ffffffffffffffff82111715613e9b57613e9a613e44565b5b80604052505050565b6000613eae613b13565b9050613eba8282613e73565b919050565b600067ffffffffffffffff821115613eda57613ed9613e44565b5b613ee382613cad565b9050602081019050919050565b82818337600083830152505050565b6000613f12613f0d84613ebf565b613ea4565b905082815260208101848484011115613f2e57613f2d613e3f565b5b613f39848285613ef0565b509392505050565b600082601f830112613f5657613f55613e3a565b5b8135613f66848260208601613eff565b91505092915050565b60008060408385031215613f8657613f85613b1d565b5b6000613f9485828601613d30565b925050602083013567ffffffffffffffff811115613fb557613fb4613b22565b5b613fc185828601613f41565b9150509250929050565b600080600060608486031215613fe457613fe3613b1d565b5b6000613ff286828701613de5565b935050602061400386828701613de5565b925050604061401486828701613d30565b9150509250925092565b61402781613be2565b82525050565b600060808201905081810360008301526140478187613cbe565b9050614056602083018661401e565b81810360408301526140688185613cbe565b9050614077606083018461401e565b95945050505050565b60006020828403121561409657614095613b1d565b5b60006140a484828501613de5565b91505092915050565b60006020820190506140c2600083018461401e565b92915050565b600080604083850312156140df576140de613b1d565b5b600083013567ffffffffffffffff8111156140fd576140fc613b22565b5b61410985828601613f41565b925050602061411a85828601613d30565b9150509250929050565b6000606082019050614139600083018661401e565b614146602083018561401e565b81810360408301526141588184613cbe565b9050949350505050565b60a0820160008201516141786000850182613bec565b50602082015161418b6020850182613bec565b50604082015161419e6040850182613bec565b5060608201516141b16060850182613bec565b5060808201516141c46080850182613bfb565b50505050565b600060a0820190506141df6000830184614162565b92915050565b6141ee81613bac565b81146141f957600080fd5b50565b60008135905061420b816141e5565b92915050565b6000806040838503121561422857614227613b1d565b5b600061423685828601613de5565b9250506020614247858286016141fc565b9150509250929050565b60006020828403121561426757614266613b1d565b5b600082013567ffffffffffffffff81111561428557614284613b22565b5b61429184828501613f41565b91505092915050565b600082825260208201905092915050565b60006142b682613c67565b6142c0818561429a565b93506142d0818560208601613c83565b6142d981613cad565b840191505092915050565b60006080830160008301516142fc6000860182613bec565b506020830151848203602086015261431482826142ab565b91505060408301516143296040860182613bec565b50606083015161433c6060860182613bfb565b508091505092915050565b6000602082019050818103600083015261436181846142e4565b905092915050565b600067ffffffffffffffff82111561438457614383613e44565b5b61438d82613cad565b9050602081019050919050565b60006143ad6143a884614369565b613ea4565b9050828152602081018484840111156143c9576143c8613e3f565b5b6143d4848285613ef0565b509392505050565b600082601f8301126143f1576143f0613e3a565b5b813561440184826020860161439a565b91505092915050565b6000806000806080858703121561442457614423613b1d565b5b600061443287828801613de5565b945050602061444387828801613de5565b935050604061445487828801613d30565b925050606085013567ffffffffffffffff81111561447557614474613b22565b5b614481878288016143dc565b91505092959194509250565b600081519050919050565b600082825260208201905092915050565b6000819050602082019050919050565b600060808301600083015184820360008601526144d682826142ab565b91505060208301516144eb6020860182613bec565b506040830151848203604086015261450382826142ab565b91505060608301516145186060860182613bec565b508091505092915050565b600061452f83836144b9565b905092915050565b6000602082019050919050565b600061454f8261448d565b6145598185614498565b93508360208202850161456b856144a9565b8060005b858110156145a757848403895281516145888582614523565b945061459383614537565b925060208a0199505060018101905061456f565b50829750879550505050505092915050565b600060208201905081810360008301526145d38184614544565b905092915050565b600081519050919050565b600082825260208201905092915050565b6000819050602082019050919050565b600060608301600083015161461f6000860182613bec565b5060208301516146326020860182613bec565b506040830151848203604086015261464a82826142ab565b9150508091505092915050565b60006146638383614607565b905092915050565b6000602082019050919050565b6000614683826145db565b61468d81856145e6565b93508360208202850161469f856145f7565b8060005b858110156146db57848403895281516146bc8582614657565b94506146c78361466b565b925060208a019950506001810190506146a3565b50829750879550505050505092915050565b600060208201905081810360008301526147078184614678565b905092915050565b6000806040838503121561472657614725613b1d565b5b600061473485828601613de5565b925050602061474585828601613de5565b9150509250929050565b7f536f7272792c20596f7520617265206e6f742061207265736964656e7420686560008201527f72652e0000000000000000000000000000000000000000000000000000000000602082015250565b60006147ab602383613c72565b91506147b68261474f565b604082019050919050565b600060208201905081810360008301526147da8161479e565b9050919050565b7f4e487b7100000000000000000000000000000000000000000000000000000000600052601160045260246000fd5b600061481b82613be2565b91507fffffffffffffffffffffffffffffffffffffffffffffffffffffffffffffffff820361484d5761484c6147e1565b5b600182019050919050565b6000819050919050565b61487361486e82613be2565b614858565b82525050565b60006148858284614862565b60208201915081905092915050565b600061489f82613be2565b91506148aa83613be2565b92508282019050808211156148c2576148c16147e1565b5b92915050565b7f4e487b7100000000000000000000000000000000000000000000000000000000600052602260045260246000fd5b6000600282049050600182168061490f57607f821691505b602082108103614922576149216148c8565b5b50919050565b60008190508160005260206000209050919050565b60006020601f8301049050919050565b60008160020a8302905092915050565b60006008830261498d7fffffffffffffffffffffffffffffffffffffffffffffffffffffffffffffffff8261494d565b614997868361494d565b95508019841693508086168417925050509392505050565b6000819050919050565b60006149d46149cf6149ca84613be2565b6149af565b613be2565b9050919050565b6000819050919050565b6149ee836149b9565b614a026149fa826149db565b84845461495d565b825550505050565b600090565b614a17614a0a565b614a228184846149e5565b505050565b5b81811015614a4657614a3b600082614a0f565b600181019050614a28565b5050565b601f821115614a8b57614a5c81614928565b614a658461493d565b81016020851015614a74578190505b614a88614a808561493d565b830182614a27565b50505b505050565b60008160020a8304905092915050565b6000614ab160001984600802614a90565b1980831691505092915050565b6000614aca8383614aa0565b9150826002028217905092915050565b614ae382613c67565b67ffffffffffffffff811115614afc57614afb613e44565b5b614b0682546148f7565b614b11828285614a4a565b600060209050601f831160018114614b445760008415614b32578287015190505b614b3c8582614abe565b865550614ba4565b601f198416614b5286614928565b60005b82811015614b7a57848901518255600182019150602085019450602081019050614b55565b86831015614b975784890151614b93601f891682614aa0565b8355505b6001600288020188555050505b505050505050565b7f56697369746f7200000000000000000000000000000000000000000000000000600082015250565b6000614be2600783613c72565b9150614bed82614bac565b602082019050919050565b60006080820190508181036000830152614c1181614bd5565b9050614c20602083018661401e565b8181036040830152614c328185613cbe565b9050614c41606083018461401e565b949350505050565b7f536f7272792c20796f7520616c726561647920766f74656420666f722074686560008201527f2072756c65210000000000000000000000000000000000000000000000000000602082015250565b6000614ca5602683613c72565b9150614cb082614c49565b604082019050919050565b60006020820190508181036000830152614cd481614c98565b9050919050565b7f5468697320706f737420697320616c726561647920646f6e652e000000000000600082015250565b6000614d11601a83613c72565b9150614d1c82614cdb565b602082019050919050565b60006020820190508181036000830152614d4081614d04565b9050919050565b600081905092915050565b7f7965730000000000000000000000000000000000000000000000000000000000600082015250565b6000614d88600383614d47565b9150614d9382614d52565b600382019050919050565b6000614da982614d7b565b9150819050919050565b6000614dbe82613c67565b614dc88185614d47565b9350614dd8818560208601613c83565b80840191505092915050565b6000614df08284614db3565b915081905092915050565b600061ffff82169050919050565b6000614e1482614dfb565b915061ffff8203614e2857614e276147e1565b5b600182019050919050565b6000606082019050614e486000830186613da4565b614e55602083018561401e565b614e626040830184613da4565b949350505050565b7f536f7272792c20796f7520646f206e6f7420686176652074686520726967687460008201527f20746f206578656375746520746869732e000000000000000000000000000000602082015250565b6000614ec6603183613c72565b9150614ed182614e6a565b604082019050919050565b60006020820190508181036000830152614ef581614eb9565b9050919050565b7f546869732071756f746120697320616c72656164792074616b656e206f75742e600082015250565b6000614f32602083613c72565b9150614f3d82614efc565b602082019050919050565b60006020820190508181036000830152614f6181614f25565b9050919050565b6000614f748285614862565b602082019150614f848284614862565b6020820191508190509392505050565b7f4e487b7100000000000000000000000000000000000000000000000000000000600052601260045260246000fd5b6000614fce82613be2565b9150614fd983613be2565b925082614fe957614fe8614f94565b5b828204905092915050565b7f51756f7461000000000000000000000000000000000000000000000000000000600082015250565b600061502a600583613c72565b915061503582614ff4565b602082019050919050565b600060808201905081810360008301526150598161501d565b9050615068602083018661401e565b818103604083015261507a8185613cbe565b9050615089606083018461401e565b949350505050565b7f43616e6e6f742070726f63656564207061796d656e742120496e73756666696360008201527f69656e742066756e64732e000000000000000000000000000000000000000000602082015250565b60006150ed602b83613c72565b91506150f882615091565b604082019050919050565b6000602082019050818103600083015261511c816150e0565b9050919050565b7f596f7520616c7265616479207061696420796f7572206665652e000000000000600082015250565b6000615159601a83613c72565b915061516482615123565b602082019050919050565b600060208201905081810360008301526151888161514c565b9050919050565b7f546869732071756f746120697320616c726561647920646f6e652e0000000000600082015250565b60006151c5601b83613c72565b91506151d08261518f565b602082019050919050565b600060208201905081810360008301526151f4816151b8565b9050919050565b7f506f73742052756c650000000000000000000000000000000000000000000000600082015250565b6000615231600983613c72565b915061523c826151fb565b602082019050919050565b6000608082019050818103600083015261526081615224565b905061526f602083018661401e565b81810360408301526152818185613cbe565b9050615290606083018461401e565b949350505050565b60006152a48285614db3565b91506152b08284614db3565b91508190509392505050565b7f4e487b7100000000000000000000000000000000000000000000000000000000600052603260045260246000fd5b7f546865207072696365206973206e6f742074686520726967687420616d6f756e60008201527f742e000000000000000000000000000000000000000000000000000000000000602082015250565b6000615347602283613c72565b9150615352826152eb565b604082019050919050565b600060208201905081810360008301526153768161533a565b9050919050565b600061538882613be2565b915061539383613be2565b92508282039050818111156153ab576153aa6147e1565b5b92915050565b6000815490506153c0816148f7565b9050919050565b8181036153d55750506154ad565b6153de826153b1565b67ffffffffffffffff8111156153f7576153f6613e44565b5b61540182546148f7565b61540c828285614a4a565b6000601f83116001811461543b5760008415615429578287015490505b6154338582614abe565b8655506154a6565b601f19841661544987614928565b965061545486614928565b60005b8281101561547c57848901548255600182019150600185019450602081019050615457565b868310156154995784890154615495601f891682614aa0565b8355505b6001600288020188555050505b5050505050505b565b7f4e487b7100000000000000000000000000000000000000000000000000000000600052603160045260246000fd5b7f4e6577205265736964656e740000000000000000000000000000000000000000600082015250565b6000615514600c83613c72565b915061551f826154de565b602082019050919050565b6000608082019050818103600083015261554381615507565b9050615552602083018661401e565b81810360408301526155648185613cbe565b9050615573606083018461401e565b949350505050565b60008154905061558a816148f7565b9050919050565b60008190508160005260206000209050919050565b8181036155b457505061568c565b6155bd8261557b565b67ffffffffffffffff8111156155d6576155d5613e44565b5b6155e082546148f7565b6155eb828285614a4a565b6000601f83116001811461561a5760008415615608578287015490505b6156128582614abe565b865550615685565b601f19841661562887615591565b965061563386614928565b60005b8281101561565b57848901548255600182019150600185019450602081019050615636565b868310156156785784890154615674601f891682614aa0565b8355505b6001600288020188555050505b5050505050505b565b7f4e65772052756c65000000000000000000000000000000000000000000000000600082015250565b60006156c4600883613c72565b91506156cf8261568e565b602082019050919050565b600060808201905081810360008301526156f3816156b7565b9050615702602083018661401e565b81810360408301526157148185613cbe565b9050615723606083018461401e565b949350505050565b600081519050919050565b600082825260208201905092915050565b60006157528261572b565b61575c8185615736565b935061576c818560208601613c83565b61577581613cad565b840191505092915050565b60006080820190506157956000830187613da4565b6157a26020830186613da4565b6157af604083018561401e565b81810360608301526157c18184615747565b905095945050505050565b6000815190506157db81613b53565b92915050565b6000602082840312156157f7576157f6613b1d565b5b6000615805848285016157cc565b91505092915050565b600061581982614dfb565b915061582483614dfb565b925082820261583281614dfb565b9150808214615844576158436147e1565b5b5092915050565b600061585682614dfb565b915061586183614dfb565b92508261587157615870614f94565b5b828204905092915050565b60006040820190506158916000830185613da4565b61589e602083018461401e565b939250505056fe41206e65772072756c65207761732070726f706f7365642c20706c6561736520766f74652062792074686520656e64206f662064756520646174652e20496620796f752077616e7420746f20736565207468652072756c6520676f20746f2074686520766f7465207061676541206e65772072756c652068617320706173732c206b696e646c7920636865636b206f6e20746865207465726d7320616e642061677265656d656e74732e54686572652077696c6c20626520612076697369746f7220636f6d696e6720746f6461792e4e6577207265736964656e7420696e2074686520636f6e646f6d696e69756d2c20706c656173652077656c636f6d65207468656d2e41206e65772071756f746120666f7220484f412066656520666f722074686973206d6f6e74682c20706c65617365207061792062792074686520656e64206f662074686520646174652e20496620796f752077616e7420746f2073656520686f77206d75636820676f20746f207061796d656e742070616765a26469706673582212200f07e4a254901407567a6ec9c238aa0401c093555ab348486a0bd0133b60d74664736f6c634300081500337b22626564726f6f6d73223a202231222c202262617468726f6f6d73223a202231222c20226b69746368656e223a2022696e636c75646564222c2022686561746572223a2022696e636c75646564222c2022616972636f6e223a2022696e636c75646564222c20226c61756e647279223a20226e6f742d696e636c75646564222c202270726f706572747953697a65223a202235313873716674227d7b22626564726f6f6d73223a202232222c202262617468726f6f6d73223a202231222c20226b69746368656e223a2022696e636c75646564222c2022686561746572223a2022696e636c75646564222c2022616972636f6e223a2022696e636c75646564222c20226c61756e647279223a20226e6f742d696e636c75646564222c202270726f706572747953697a65223a202235393373716674227d7b22626564726f6f6d73223a202232222c202262617468726f6f6d73223a202231222c20226b69746368656e223a2022696e636c75646564222c2022686561746572223a2022696e636c75646564222c2022616972636f6e223a2022696e636c75646564222c20226c61756e647279223a2022696e636c75646564222c202270726f706572747953697a65223a202236333273716674227d7b22626564726f6f6d73223a202232222c202262617468726f6f6d73223a202232222c20226b69746368656e223a2022696e636c75646564222c2022686561746572223a2022696e636c75646564222c2022616972636f6e223a2022696e636c75646564222c20226c61756e647279223a2022696e636c75646564222c202270726f706572747953697a65223a202237313873716674227d",
  "immutableReferences": {},
  "source": "// SPDX-License-Identifier: GPL-3.0\r\n\r\npragma solidity ^0.8.21;\r\n\r\nimport \"@openzeppelin/contracts/token/ERC721/extensions/ERC721URIStorage.sol\";\r\n\r\nimport \"./ContractStruct.sol\";\r\n\r\ncontract Condo is ERC721URIStorage {\r\n        address private OWNER;\r\n\r\n    // This will be use to generate sha256 id.\r\n    uint256 private unitCount = 0;\r\n    uint256 private visitKeyCount = 0;\r\n    uint256 private ruleCount = 0;\r\n    uint256 private quotaCount = 0;\r\n\r\n    // Keep record of the condominium.\r\n    uint16 private numberResidents = 0;\r\n\r\n    mapping(address => uint256) private residents;\r\n    mapping(uint256 => PostRule) private ruleDocuments;\r\n    mapping(uint256 => PostQuota) private quotaDocuments;\r\n    \r\n    PostUnit[] public unitMarket;\r\n    NotifyEvent[] public notifications;\r\n    string[] public termsAndAgreements;\r\n\r\n    // Notifications event.\r\n    event SendNotifyEvent(string typeEvent, uint256 dueDate, string decs, uint256 id);\r\n\r\n    // function's restrictions.\r\n    modifier onlyResident() { require(residents[msg.sender] != 0, \"Sorry, You are not a resident here.\");  _;}\r\n    modifier holderNFT(uint256 _unitId) { require(residents[msg.sender] == _unitId, \"Sorry, You are not the owner of the unit.\");  _;}\r\n    modifier onlyOwner() { require(OWNER == msg.sender, \"Sorry, you do not have the right to execute this.\"); _;}\r\n\r\n    constructor() ERC721(\"CondoNFT\", \"CNFT\") { \r\n        OWNER = msg.sender; \r\n\r\n        // Initialize some ready units to play around.\r\n        mintUnit('{\"bedrooms\": \"1\", \"bathrooms\": \"1\", \"kitchen\": \"included\", \"heater\": \"included\", \"aircon\": \"included\", \"laundry\": \"not-included\", \"propertySize\": \"518sqft\"}', 20000);\r\n        mintUnit('{\"bedrooms\": \"2\", \"bathrooms\": \"1\", \"kitchen\": \"included\", \"heater\": \"included\", \"aircon\": \"included\", \"laundry\": \"not-included\", \"propertySize\": \"593sqft\"}', 30000);\r\n        mintUnit('{\"bedrooms\": \"2\", \"bathrooms\": \"1\", \"kitchen\": \"included\", \"heater\": \"included\", \"aircon\": \"included\", \"laundry\": \"included\", \"propertySize\": \"632sqft\"}', 40000);\r\n        mintUnit('{\"bedrooms\": \"2\", \"bathrooms\": \"2\", \"kitchen\": \"included\", \"heater\": \"included\", \"aircon\": \"included\", \"laundry\": \"included\", \"propertySize\": \"718sqft\"}', 50000);\r\n    }\r\n\r\n    // Create a unit.\r\n    function mintUnit(string memory _unitURI, uint256 _unitPrice) public onlyOwner {\r\n        // Generate unique id.\r\n        unitCount++;\r\n        uint256 unitId = uint256(keccak256(abi.encodePacked(unitCount, block.timestamp)));\r\n\r\n        // Mint NFT.\r\n        _safeMint(msg.sender, unitId);\r\n        _setTokenURI(unitId, _unitURI);\r\n\r\n        PostUnit memory unit = PostUnit(unitId, _unitPrice, _unitURI);\r\n        unitMarket.push(unit);\r\n    }\r\n\r\n        // Calculate the percentage of the total vote.\r\n    function percentage(uint16 _yesCount) private view returns (uint16) {\r\n        return (_yesCount * 100) / numberResidents;\r\n    }\r\n\r\n    // Grab the unit market list.\r\n    function getUnitMarket() public view returns (PostUnit[] memory) {\r\n        return unitMarket;\r\n    }\r\n\r\n    // Grab the notify event list.\r\n    function getNotifications() public view returns (NotifyEvent[] memory) {\r\n        return notifications;\r\n    }\r\n\r\n    // Grab the Post Rule.\r\n    function getPostRule(uint256 _ruleId) public view returns (ReturnRule memory) {\r\n        PostRule storage rule = ruleDocuments[_ruleId];\r\n        return ReturnRule(rule.ruleId, rule.rule, rule.dueDate, rule.status);\r\n    }\r\n\r\n    // Grab the Post Quota\r\n    function getPostQuota(uint256 _quotaId) public view returns (ReturnQuota memory) {\r\n        PostQuota storage quota = quotaDocuments[_quotaId];\r\n        return ReturnQuota(quota.quotaId, quota.totalFee, quota.payment, quota.dueDate, quota.status);\r\n    }\r\n\r\n    // Authorization residential.\r\n    function isResident() public view returns(bool) {\r\n        if (residents[msg.sender] != 0)\r\n            return true;\r\n        return false;\r\n    }\r\n\r\n    // Post a new rule for the terms and agreements of houseowner association.\r\n    function postRule(string memory _rule) public onlyResident {\r\n        // Generate ruleId.\r\n        ruleCount++;\r\n        uint256 ruleId = uint256(keccak256(abi.encodePacked(ruleCount, block.timestamp)));\r\n\r\n        uint256 dueDate = block.timestamp + 30 days;\r\n\r\n        PostRule storage rule = ruleDocuments[ruleId];\r\n        rule.ruleId = ruleId;\r\n        rule.rule = _rule;\r\n        rule.dueDate = dueDate;\r\n        rule.status = true;\r\n\r\n        string memory desc = \"A new rule was proposed, please vote by the end of due date. If you want to see the rule go to the vote page\";\r\n        NotifyEvent memory notif = NotifyEvent(\"Post Rule\", dueDate, desc, ruleId);\r\n        notifications.push(notif);\r\n        emit SendNotifyEvent(\"Post Rule\", dueDate, desc, ruleId);\r\n    }\r\n\r\n    // Place a vote for post rule.\r\n    function voteRule(uint256 ruleId, string memory _vote) public onlyResident {\r\n        PostRule storage rule = ruleDocuments[ruleId];\r\n\r\n        // Check if the resident already voted and if it is already fulfilled.\r\n        require(!rule.voted[msg.sender], \"Sorry, you already voted for the rule!\");\r\n        require(rule.status, \"This post is already done.\");\r\n\r\n        if ((keccak256(abi.encodePacked(_vote)) == keccak256(abi.encodePacked(\"yes\")))) \r\n            rule.yesCount++;\r\n        else\r\n            rule.noCount++;\r\n\r\n        rule.voted[msg.sender] = true;\r\n    }\r\n\r\n    // Check if the vote is enough to pass the new rule.\r\n    function passedRule(uint256 ruleId) public onlyOwner {\r\n        PostRule storage rule = ruleDocuments[ruleId];\r\n\r\n        if (percentage(rule.yesCount) >= 60) {\r\n            termsAndAgreements.push(rule.rule);\r\n            rule.status = false;\r\n\r\n            uint256 dueDate = block.timestamp;\r\n\r\n            string memory desc = \"A new rule has pass, kindly check on the terms and agreements.\";\r\n            NotifyEvent memory notif = NotifyEvent(\"New Rule\", dueDate, desc, ruleId);\r\n            notifications.push(notif);\r\n            emit SendNotifyEvent(\"New Rule\", dueDate, desc, ruleId);\r\n        }\r\n    }\r\n\r\n    // Post new quota for HOA fee.\r\n    function postQuota(uint256 _totalFee) public onlyOwner {\r\n        // Generate quotaId.\r\n        quotaCount++;\r\n        uint256 quotaId = uint256(keccak256(abi.encodePacked(quotaCount, block.timestamp)));\r\n\r\n        uint256 dueDate = block.timestamp + 30 days;\r\n        uint256 payment = (_totalFee / numberResidents) + 1;\r\n\r\n        PostQuota storage quota = quotaDocuments[quotaId];\r\n        quota.quotaId = quotaId;\r\n        quota.totalFee = _totalFee;\r\n        quota.dueDate = dueDate;\r\n        quota.payment = payment;\r\n        quota.status = true;\r\n        \r\n        string memory desc = \"A new quota for HOA fee for this month, please pay by the end of the date. If you want to see how much go to payment page\";\r\n        NotifyEvent memory notif = NotifyEvent(\"Quota\", dueDate, desc, quotaId);\r\n        notifications.push(notif);\r\n        emit SendNotifyEvent(\"Quota\", dueDate, desc, quotaId);\r\n    }\r\n\r\n    // Do payment for HOA fee.\r\n    function payQuota(uint256 _quotaId) public payable onlyResident {\r\n        PostQuota storage quota = quotaDocuments[_quotaId];\r\n\r\n        // Check some requirements.\r\n        require(quota.payment == msg.value, \"Cannot proceed payment! Insufficient funds.\");\r\n        require(!quota.paid[msg.sender], \"You already paid your fee.\");\r\n        require(quota.status, \"This quota is already done.\");\r\n\r\n        quota.totalPay += quota.payment;\r\n        quota.paid[msg.sender] = true;\r\n    }\r\n\r\n    // Take out the fee from the contract.\r\n    function takeQuota(uint256 _quotaId) public payable onlyOwner {\r\n        PostQuota storage quota = quotaDocuments[_quotaId];\r\n\r\n        require(quota.status, \"This quota is already taken out.\");\r\n\r\n        quota.status = false;\r\n        payable(msg.sender).transfer(quota.totalPay);\r\n    }\r\n\r\n    function buyUnit(uint256 _index) public payable {\r\n        PostUnit storage unit = unitMarket[_index];\r\n\r\n        require(msg.value == unit.unitPrice, \"The price is not the right amount.\");\r\n\r\n        // Grab the address of the previous owner of the house.\r\n        address prevOwner = ownerOf(unit.unitId);\r\n\r\n        // transfer the unit to the new owner.\r\n        _safeTransfer(prevOwner, msg.sender, unit.unitId);\r\n\r\n        residents[prevOwner] = 0;\r\n        residents[msg.sender] = unit.unitId;\r\n\r\n        unitMarket[_index] = unitMarket[unitMarket.length-1];      // place the last element to the index of unit listing.\r\n        unitMarket.pop();                                                 // then remove the last element.\r\n\r\n        uint256 dueDate = block.timestamp;\r\n\r\n        string memory desc = \"New resident in the condominium, please welcome them.\";\r\n        NotifyEvent memory notif = NotifyEvent(\"New Resident\", dueDate, desc, unit.unitId);\r\n        notifications.push(notif);\r\n        emit SendNotifyEvent(\"New Resident\", dueDate, desc, unit.unitId);\r\n\r\n        numberResidents++;\r\n        // Send the money to the previous owner.\r\n        payable(prevOwner).transfer(msg.value);\r\n    }\r\n\r\n    // Create a key for the visitor that shouldn't be shared.\r\n    function postVisit() public onlyResident returns (VisitKey memory) {\r\n        // Generate key.\r\n        visitKeyCount++;\r\n        uint256 keyId = uint256(keccak256(abi.encodePacked(visitKeyCount)));\r\n\r\n        uint256 dueDate = block.timestamp + 1 days;\r\n        \r\n        string memory desc = \"There will be a visitor coming today.\";\r\n        NotifyEvent memory notif = NotifyEvent(\"Visitor\", dueDate, desc, keyId);\r\n        notifications.push(notif);\r\n        emit SendNotifyEvent(\"Visitor\", dueDate, desc, keyId);\r\n        \r\n        VisitKey memory key = VisitKey(keyId, dueDate, true);\r\n        return key;\r\n    }\r\n}",
  "sourcePath": "E:\\Saskpolytech\\CCCMP-606\\condominium-contract\\smart-contract\\contracts\\Condo.sol",
  "compiler": {
    "name": "solc",
    "version": "0.8.21+commit.d9974bed.Emscripten.clang"
  },
  "schemaVersion": "3.4.16",
  "updatedAt": "2024-11-27T16:25:47.934Z",
  "networkType": "ethereum",
  "devdoc": {
    "errors": {
      "ERC721IncorrectOwner(address,uint256,address)": [
        {
          "details": "Indicates an error related to the ownership over a particular token. Used in transfers.",
          "params": {
            "owner": "Address of the current owner of a token.",
            "sender": "Address whose tokens are being transferred.",
            "tokenId": "Identifier number of a token."
          }
        }
      ],
      "ERC721InsufficientApproval(address,uint256)": [
        {
          "details": "Indicates a failure with the `operator`s approval. Used in transfers.",
          "params": {
            "operator": "Address that may be allowed to operate on tokens without being their owner.",
            "tokenId": "Identifier number of a token."
          }
        }
      ],
      "ERC721InvalidApprover(address)": [
        {
          "details": "Indicates a failure with the `approver` of a token to be approved. Used in approvals.",
          "params": {
            "approver": "Address initiating an approval operation."
          }
        }
      ],
      "ERC721InvalidOperator(address)": [
        {
          "details": "Indicates a failure with the `operator` to be approved. Used in approvals.",
          "params": {
            "operator": "Address that may be allowed to operate on tokens without being their owner."
          }
        }
      ],
      "ERC721InvalidOwner(address)": [
        {
          "details": "Indicates that an address can't be an owner. For example, `address(0)` is a forbidden owner in EIP-20. Used in balance queries.",
          "params": {
            "owner": "Address of the current owner of a token."
          }
        }
      ],
      "ERC721InvalidReceiver(address)": [
        {
          "details": "Indicates a failure with the token `receiver`. Used in transfers.",
          "params": {
            "receiver": "Address to which tokens are being transferred."
          }
        }
      ],
      "ERC721InvalidSender(address)": [
        {
          "details": "Indicates a failure with the token `sender`. Used in transfers.",
          "params": {
            "sender": "Address whose tokens are being transferred."
          }
        }
      ],
      "ERC721NonexistentToken(uint256)": [
        {
          "details": "Indicates a `tokenId` whose `owner` is the zero address.",
          "params": {
            "tokenId": "Identifier number of a token."
          }
        }
      ]
    },
    "events": {
      "Approval(address,address,uint256)": {
        "details": "Emitted when `owner` enables `approved` to manage the `tokenId` token."
      },
      "ApprovalForAll(address,address,bool)": {
        "details": "Emitted when `owner` enables or disables (`approved`) `operator` to manage all of its assets."
      },
      "BatchMetadataUpdate(uint256,uint256)": {
        "details": "This event emits when the metadata of a range of tokens is changed. So that the third-party platforms such as NFT market could timely update the images and related attributes of the NFTs."
      },
      "MetadataUpdate(uint256)": {
        "details": "This event emits when the metadata of a token is changed. So that the third-party platforms such as NFT market could timely update the images and related attributes of the NFT."
      },
      "Transfer(address,address,uint256)": {
        "details": "Emitted when `tokenId` token is transferred from `from` to `to`."
      }
    },
    "kind": "dev",
    "methods": {
      "approve(address,uint256)": {
        "details": "See {IERC721-approve}."
      },
      "balanceOf(address)": {
        "details": "See {IERC721-balanceOf}."
      },
      "getApproved(uint256)": {
        "details": "See {IERC721-getApproved}."
      },
      "isApprovedForAll(address,address)": {
        "details": "See {IERC721-isApprovedForAll}."
      },
      "name()": {
        "details": "See {IERC721Metadata-name}."
      },
      "ownerOf(uint256)": {
        "details": "See {IERC721-ownerOf}."
      },
      "safeTransferFrom(address,address,uint256)": {
        "details": "See {IERC721-safeTransferFrom}."
      },
      "safeTransferFrom(address,address,uint256,bytes)": {
        "details": "See {IERC721-safeTransferFrom}."
      },
      "setApprovalForAll(address,bool)": {
        "details": "See {IERC721-setApprovalForAll}."
      },
      "supportsInterface(bytes4)": {
        "details": "See {IERC165-supportsInterface}"
      },
      "symbol()": {
        "details": "See {IERC721Metadata-symbol}."
      },
      "tokenURI(uint256)": {
        "details": "See {IERC721Metadata-tokenURI}."
      },
      "transferFrom(address,address,uint256)": {
        "details": "See {IERC721-transferFrom}."
      }
    },
    "version": 1
  },
  "userdoc": {
    "kind": "user",
    "methods": {},
    "version": 1
  }
}